:020000040800F2
:10000000F8040020A50100087B1500084114000831
:1000100079150008B9020008451B0008000000001F
:10002000000000000000000000000000FD150008B6
:10003000BB020008000000007D1500080116000842
:10004000BF010008BF010008BF010008BF01000890
:10005000BF010008BF010008BF010008BF01000880
:10006000BF010008BF010008BF010008BF01000870
:10007000BF010008BF010008BF010008BF01000860
:10008000BF010008BF010008BF0100080000000018
:10009000000000000000000000000000BF01000898
:1000A000BF010008BF010008BF010008BF01000830
:1000B000BF0100080000000000000000BF010008B0
:1000C000BF010008BF010008BF010008BF01000810
:1000D000BF010008BF010008BF010008BF01000800
:1000E000BF010008BF010008000000000000000080
:1000F0000000000000000000000000000000000000
:1001000000000000000000000000000000000000EF
:100110000000000000000000BF0100080000000017
:10012000BF010008BF010008BF010008BF010008AF
:10013000BF010008000000000000000000000000F7
:10014000BF010008BF010008BF010008BF0100088F
:10015000BF010008BF010008BF010008BF0100087F
:10016000BF010008BF0100080000000000000000FF
:1001700000000000BF0100080000000000000000B7
:10018000BF010008BF010008BF010008DFF810D060
:1001900000F080F800480047851B0008AFF300809E
:1001A000F80400200648804706480047FEE7FEE7BF
:1001B000FEE7FEE7FEE7FEE7FEE7FEE7FEE7FEE717
:1001C000BD1600088D0100082DE9F05F05460020EE
:1001D00092469B4688460646814640241BE02846B8
:1001E00041464746224600F044F853465A46C01A54
:1001F000914110D311461846224600F02BF82D1AD3
:1002000067EB01084F4622460120002100F022F84A
:1002100017EB00094E41201EA4F10104DFDC484623
:1002200031462A46434600F000B830BCBDE8C09FC6
:10023000D2B201E000F8012B491EFBD27047002228
:10024000F6E710B513460A4604461946FFF7F0FFD5
:10025000204610BD202A04DB203A00FA02F10020DB
:1002600070479140C2F1200320FA03F319439040F4
:100270007047202A04DB203A21FA02F0002170475F
:1002800021FA02F3D040C2F12002914008431946FE
:1002900070470000064C074D06E0E06840F001039F
:1002A00094E8070098471034AC42F6D3FFF772FF8A
:1002B000301C0008501C0008FEE770472DE9F0478D
:1002C000044690F850009AB00D464FF000080128FF
:1002D00013D0012084F850002A4E20684FF0000906
:1002E000B0420ED1284F0097384601F0B2F882464E
:1002F000206801F0AEF860B10EE002201AB0BDE84F
:10030000F087616D41F02001616584F85090012013
:10031000F4E7BAF1000F09D0606D40F0200060658D
:100320004FF0010884F850904046E7E717482A68E4
:1003300040F61F71002A826822F4604215D094F8BA
:10034000303042EA43326B681A438260B268BB685D
:1003500002F0010203F001031A43E3D1AB682A68FB
:100360001A4383688B431A430AE08260B268BB6811
:1003700002F0010203F001031A43D3D182688A43D9
:100380008260CFE7000004500001045000030450D5
:10039000F8B54FF0000504002E46009502D0606DC0
:1003A00010B107E00120F8BD204600F0CFF8A665A7
:1003B00084F8506020688168C1F3407119B1816888
:1003C000594A1140816020688168C1F3007179B990
:1003D0008168564A114041F0805181605448554926
:1003E0000068B0FBF1F000E0401E00900028FBD157
:1003F00020688168C1F3007141B9616D41F010015D
:100400006165A16D41F00101A165012501F01DF8B3
:10041000616DC90600D430B1606D40F010006065B8
:1004200001252846F8BD606D20F4807040F0020080
:1004300060652068806810F0010F10D13E48806828
:100440003E4900F00100896801F00101084306D12E
:100450003B486168826822F47C120A438260E1684A
:10046000606B627E0843A16841EA4231084394F818
:10047000201040EA0140012904D1A18C314A02EB4D
:1004800041410843A16A29B101F47071E26A014354
:1004900042EA01002168CA682B4B1A400243CA6035
:1004A000206800F0D2FF0646206800F0CAFF304303
:1004B00015D1207E94F83010800340EA4102216873
:1004C000C86844F2020398431043C86094F83800A7
:1004D00001280CD02068016921F001010161206927
:1004E00001282068016B21F00F0111D013E0D4E93D
:1004F0000F010843D4E911121143084321680A6926
:1005000040F2FC739A43104340F001000861E6E7B3
:10051000E269521E11430163606D20F0020040F059
:10052000010060657DE70000C0FFFF5FC0FFFF7F47
:1005300010000020400D0300000004500001045092
:10054000000304500000FEFF07C0F0FF10B586B0A6
:10055000044614216846FFF772FE1149206888425C
:100560001BD11048C16C41F40051C164C16C01F44D
:1005700000510591C16C41F00101C164C06C694634
:1005800000F001000590802000900B2001900020D9
:1005900002904FF0904000F019F806B010BD000036
:1005A000000004500010024070B5044600F0E8F866
:1005B0000546601C02D004480078044400F0E0F8CE
:1005C000401BA042FAD370BD040000202DE9FC4F6F
:1005D000DFF884A1002301250AF1040B03244FF066
:1005E0000F0C0BF1040EB0E005FA03F73A406ED0A1
:1005F0004E68012E05D0022E03D0112E01D0122EEE
:1006000017D1D0F808905E0004FA06F829EA080924
:100610000096D1F80C8008FA06F848EA0908C0F8F4
:1006200008804668BE430F79C7F300179F403743E1
:100630004760C6684FEA430804FA08F7BE430197CB
:100640008F6807FA08F73743C7604E68022E01D05B
:10065000122E10D1DE0800EB86060096366A5F0780
:100660004FEAD7690CFA09F7BE430F6907FA09F791
:100670003743009E37620668019FBE430F7907F03B
:10068000030707FA08F7374307604E68F6005BD5A3
:10069000324E376E47F001073766366E23F0030798
:1006A00006F0010600962E4E3E44B146B6689F07FE
:1006B0004FEA17780CFA08F7BE43B0F1904F04D018
:1006C000284FB84204D101270DE000270BE03BE0A2
:1006D000254FB84201D1022705E0244FB84201D18D
:1006E000032700E0072707FA08F73743C9F808701F
:1006F000DAF800605746D1F8048096435FEAC838BC
:1007000000D516433E60DBF800605F46D1F80480F8
:1007100096435FEA883800D516433E60DEF80060F5
:100720007746D1F8048096435FEAC82800D516437F
:100730003E60094F0C373E68D1F8048096435FEA6B
:10074000882800D516433E605B1C0E683246DE40AA
:100750007FF44AAF00F00CB80004014000100240E2
:10076000000001400004004800080048000C004858
:100770001CBCBDE8E08F0AB181617047816270479F
:10078000014880687047000004000020024881682A
:1007900002781144816070470400002010B50024E5
:1007A000032000F063F8002000F008F808B10124ED
:1007B00001E000F025F8204610BD000070B50E4E97
:1007C00005460024307898B14FF47A71B1FBF0F00F
:1007D0000A490968B1FBF0F000F086FD40B9102D20
:1007E00006D200222946501E00F020F8756000E075
:1007F0000124204670BD00000400002010000020ED
:10080000094808B5016E41F001010166016E01F071
:1008100001010091816D41F080518165806D00F092
:100820008050009008BD000000100240F0B40E4B54
:100830001B680C46C3F30223C3F10705042D00D93E
:100840000425191D072901D2002300E0DB1E012623
:1008500006FA05F1491E214099409E40761E164039
:100860003143F0BC01F06FB90CED00E0064900F037
:10087000070208684FF6FF03184040EA0220034AC7
:1008800010430860704700000CED00E00000FA051E
:100890001649B0F5007F0868C0F3412009D002284E
:1008A00005D0086820F4C06040F480600860002033
:1008B00070470128FBD0086820F4C06040F4007045
:1008C00008600B483222006850430A4AB0FBF2F03D
:1008D000401C00E0401E4A69520501D50028F9D1AC
:1008E00048694005E3D503207047000000700040D0
:1008F0001000002040420F000248006800F4C06071
:1009000070470000007000400248016841F48071A7
:1009100001607047007000400248016841F0040126
:1009200001607047001002402DE9F843044600685A
:100930000026774D80035ED5A86D0027C00008D43F
:10094000A86D40F08050A865A86D012700F0805088
:100950000090DFF8C091D9F8001041F48071C9F817
:100960000010FFF70DFF804606E000BFFFF708FF0D
:10097000A0EB080002282BD8D9F80000C005F5D557
:10098000D5F8900010F4407014D0216B814211D042
:10099000D5F89000D5F8901020F4407041F48031E3
:1009A000C5F89010D5F8901021F48031C5F890105A
:1009B000C5F89000C00711D0FFF7E2FE804641F273
:1009C000883907E0FFF7DCFEA0EB0801494501D9B3
:1009D00003260BE0D5F890008007F3D5D5F89000FA
:1009E000216B20F440700843C5F890001FB1A86D3A
:1009F00020F08050A8652078C00707D0D5F888007F
:100A0000616820F003000843C5F88800207880075B
:100A100007D5D5F88800A16820F00C000843C5F878
:100A200088002078400707D5D5F88800E16820F0D5
:100A300030000843C5F888002078800607D5D5F82F
:100A40008800216920F440600843C5F888002088A8
:100A5000800507D5D5F88800216A20F44020084396
:100A6000C5F888002088400507D5D5F88800616A58
:100A700020F440100843C5F888002078400607D5C8
:100A8000D5F88800616920F440500843C5F8880013
:100A90002078000607D5D5F88800A16920F44040E9
:100AA0000843C5F888002088C00507D5D5F8880018
:100AB000E16920F440300843C5F8880020884FF0F1
:100AC000006180040ED5D5F88800A26A20F040604D
:100AD0001043C5F88800A06A884203D1E86840F452
:100AE0008010E860206840030ED5D5F88800E26ADF
:100AF00020F040601043C5F88800E06A884203D1C6
:100B0000E86840F48010E8603046BDE8F8830000F3
:100B100000100240007000402DE9F0470F4605002C
:100B200058D0404E306800F00700B84209D2306813
:100B300020F0070038433060306800F00700B8420A
:100B400048D12878384CC0072CD06868032811D0C9
:100B5000022812D0216898B1490500293ADAA16823
:100B600021F003010143A160FFF70AFE804641F234
:100B7000883910E021688901EFE721688903ECE7F3
:100B80008907EAE7FFF7FCFDA0EB0801494502D918
:100B90000320BDE8F087A068696800F00C00B0EBA6
:100BA000810FEFD12878800705D5A068A96820F0CB
:100BB000F0000843A060306800F00700B8420BD98D
:100BC000306820F0070038433060306800F00700DC
:100BD000B84201D00120DCE72878400705D5A0689D
:100BE000E96820F4E0600843A0602878000706D593
:100BF000A068296920F4605040EAC100A06000F0BC
:100C00003FF8A168094AC1F30311515C01F01F01CB
:100C1000C8400749086007480068BDE8F047FFF78B
:100C2000CDBD00000020024000100240E81B00087B
:100C30001000002008000020054806490068896867
:100C4000054AC1F30221515C01F01F01C840704701
:100C50001000002000100240281C0008054806492A
:100C600000688968054AC1F3C221515C01F01F0187
:100C7000C84070471000002000100240281C0008E7
:100C800070B52549002318468A68CC6812F00C021A
:100C900004F00306214C4FEA640509D00C2A05D064
:100CA000042A32D0082A00D1284670BD012E10D166
:100CB0000B681B0704D4D1F89430C3F3032302E07C
:100CC0000B68C3F30313164E56F82330DAB10C2A1F
:100CD000EBD1C86800F00300022818D0032818D010
:100CE0001846CA68CB68C2F30212C3F30623434313
:100CF000521CB3FBF2F2C868C0F34160401C4000D4
:100D0000B2FBF0F070BD184670BD204670BD2046A5
:100D1000E7E72846E5E70000001002400024F40061
:100D2000F81B00082DE9F84304006FD0FE4DA868B9
:100D300000F00C06E86800F003072078C00664D5D0
:100D400076B10C2E01D1012F0AD0E0690028286865
:100D50007AD040F001002860FFF712FD80465DE088
:100D60002868800702D5E0690028DED0616A28681B
:100D7000000703D5286800F0F00004E0D5F89400DF
:100D8000F02202EA1010814216D9084600F0F8FB62
:100D900000283BD1286840F0080028602868616A74
:100DA00020F0F000084328606868216A20F47F4042
:100DB00040EA0120686016E0286840F008002860DA
:100DC0002868616A20F0F000084328606868216A9A
:100DD00020F47F4040EA0120686026B9606A00F094
:100DE000CFFB0028D5D1FFF74BFFA968CF4AC1F34D
:100DF0000311515C01F01F01C840CD490860CD4886
:100E00000068FFF7DBFC00287ED12EE0C4E000BFC5
:100E1000FFF7B6FCA0EB0800022876D82868800708
:100E2000F6D5286840F0080028602868616A20F03C
:100E3000F000084328606868216A20F47F4040EA97
:100E40000120686011E0FFE720F001002860FFF753
:100E500097FC804606E000BFFFF792FCA0EB08007D
:100E60000228DAD828688007F6D42078C00740D056
:100E7000082E18D00C2E01D1032F14D06068B0F5C5
:100E8000803F17D0B0F5A02F286817D020F480300D
:100E90002860286820F4802028606068E0B1FFF7AF
:100EA0006FFC804614E02868800322D56068002823
:100EB00072D01EE0286840F48030EDE740F48020D6
:100EC0002860F7E7FFF75CFCA0EB08006428A4D8D3
:100ED00028688003F6D50CE0FFF752FC804605E059
:100EE000FFF74EFCA0EB0800642896D82868800322
:100EF000F6D4207880073BD5042E11D00C2E01D1DA
:100F0000022F0DD0E06801E0E2E117E10028286837
:100F10001ED040F480702860FFF732FC07460CE0DA
:100F2000286840050CD5E0680028C1D008E000BF63
:100F3000FFF726FCC01B022893D828684005F7D588
:100F40006868217C20F0FE4040EA016068600FE0A4
:100F500020F480702860FFF713FC074605E000BF0F
:100F6000FFF70EFCC01B0228B1D828684005F7D453
:100F70002078000753D560690028D5F894003DD04B
:100F8000A16900F01002914223D081074FEAC0709E
:100F900003D500288CD001E071E190B1D5F8940020
:100FA00020F00100C5F89400FFF7EAFB074604E0D3
:100FB000FFF7E6FBC01B112889D8D5F894008007FD
:100FC000F6D4D5F89400A16920F010000843C5F8C4
:100FD0009400D5F8940040F00100C5F89400FFF7A4
:100FE000CFFB074605E000BFFFF7CAFBC01B112877
:100FF000A2D8D5F894008007F6D510E020F00100C3
:10100000C5F89400FFF7BCFB074604E0FFF7B8FB08
:10101000C01B112890D8D5F894008007F6D420780A
:10102000400778D5A86D0027C00008D4A86D40F00F
:101030008050A865A86D012700F0805000903E48C0
:101040000168C90512D40168814641F480710160CC
:10105000FFF796FB804605E0FFF792FBA0EB080048
:1010600002286BD8D9F80000C005F5D5A068C107E3
:1010700020D0D5F8901000F0800021F080010143CD
:10108000C5F89010207A400705D5D5F8900040F0BB
:101090000400C5F89000D5F8900040F0010000BFB2
:1010A000C5F89000A06841F28839D0B1FFF768FB1D
:1010B000804611E0D5F8900020F00100C5F89000BE
:1010C000D5F8900020F00400EAE700BFFFF758FBD6
:1010D000A0EB0801494531D8D5F890008007F5D537
:1010E00014E0FFF74DFB804606E000BFFFF748FB2A
:1010F000A0EB0801494521D8D5F890008007F5D428
:10110000D5F8900020F08000C5F890001FB1A86DC0
:1011100020F08050A8652078800634D5A06A002889
:10112000D5F898001ED00AE000100240E81B000825
:101130001000002008000020007000408CE040F00B
:101140000100C5F89800FFF71BFB074605E000BF4C
:10115000FFF716FBC01B02287ED8D5F89800800741
:10116000F6D510E020F00100C5F89800FFF708FB65
:10117000074604E0FFF704FBC01B02286CD8D5F833
:1011800098008007F6D4E06AE8B3022811D00C2E4C
:1011900075D0286820F080702860E86820F003008F
:1011A000E860E86820F08870E860FFF7E9FA044634
:1011B00090E0E868226B00F0030191421FD1616B5F
:1011C00000F0700209011039914218D1A26B00F4AD
:1011D000FE41B1EB022F12D1A18F00F4C0024908E9
:1011E0004905A1F50011914209D194F8401000F091
:1011F000C06049084906A1F10071814249D00C2E16
:101200006DD0286800E05BE020F080702860FFF778
:10121000B7FA064605E000BFFFF7B2FA801B0228C6
:1012200055D828688001F7D4D4E90C016FF00F027B
:1012300002EB01110843A18F5204490802EB41510E
:10124000A26B41EA0221084394F840104FF07E421D
:10125000490802EB416100E039E00843E968214AAE
:1012600011400843E860286840F080702860E86812
:1012700040F08070E860FFF783FA044605E02EE056
:10128000FFF77EFA001B022821D828688001F7D5D5
:1012900023E02868800120D4286840F0807028600E
:1012A000E86840F08070E860FFF76AFA044604E0FE
:1012B000FFF766FA001B022809D828688001F7D5D5
:1012C0000BE000BFFFF75CFA001B022802D90320E5
:1012D000BDE8F88328688001F4D40020F8E70120F5
:1012E000F6E700008C809FF910B5401EB0F1807FBA
:1012F00001D3012010BD4FF0E02460610F21601781
:1013000000F021FC0020A06107202061002010BD1A
:1013100010B5040002D0606F10B107E0012010BDCD
:10132000002084F87000204600F026F82420606732
:101330002068016821F001010160204600F070FA88
:101340000128ECD0606A10B1204600F0D9F920687D
:10135000416821F4904141602068816821F02A01B0
:1013600081602068016841F0010101602046BDE80C
:10137000104000F029BA000010B586B004461421D0
:101380006846FEF75CFF1349206888421FD1124867
:10139000816D41F400318165816D01F40031059169
:1013A000C16C41F00101C164C06C694600F00100EC
:1013B00005900C2000900220019000200290032054
:1013C0000390072004904FF09040FFF7FFF806B01D
:1013D00010BD00000044004000100240436F202B6D
:1013E00028D1B1B1AAB190F87030012B22D00123DD
:1013F00080F87030C164A0F85020A0F8522000217D
:101400004166C167212242678268B2F5805F02D0DF
:1014100003E001207047026952B1074A426680F832
:1014200070100068016841F0800101600020704781
:10143000024AF3E702207047651A0008251A0008DF
:10144000FEE78068C0F3C00070478068C0F380008A
:1014500070478068C0F38000704700003EB50024EC
:1014600013480094019411490294C0E90014846067
:101470000421C460C0E90441047601214176C161C0
:1014800080F8204080F83040446380F83840FEF710
:101490007FFF08B172B6FEE7694605480094FEF783
:1014A0000DFF002801D072B6FEE73EBD00000450DB
:1014B00014000020F0B587B014216846FEF7BFFE87
:1014C0001D48C16C41F00401C164C16C01F004010C
:1014D0000591C16C41F00101C164C16C01F00101D1
:1014E0000591C16C41F00201C164C06C4FF090469F
:1014F00000F002000590002220213046FFF73BF962
:101500000E4F0022C9213846FFF735F92020009000
:1015100001250024CDE90154694630460394FFF7C4
:1015200055F8C9200090CDE9015469463846039426
:10153000FFF74CF807B0F0BD00100240000400486F
:101540000C4810B50A4901604FF4E13141600021B7
:1015500081600C22C160C0E904128161C161016235
:101560004162FFF7D5FE002801D072B6FEE710BD3C
:101570000044004078000020FEE7FEE770470000CE
:10158000F8B51C4D06460024A86DC00002D5FFF733
:10159000B3F90DE0A86D40F08050A865A86D00F08B
:1015A00080500090FFF7A8F9A96D21F08051A9653E
:1015B000B0F5007F04D0802E07D94FF003040AE075
:1015C000802E08D9A02E01D804E001D1022402E027
:1015D000702E00D101240848016821F00701214341
:1015E0000160006800F00700A04201D00120F8BDB2
:1015F0000020F8BD001002400020024070470000AB
:1016000007490868401C0860642806DD0548026830
:1016100082F04002026000200860FFF7B7B80000C7
:10162000000000201404004810B5A4B0442168460E
:10163000FEF705FE14211EA8FEF701FE342111A8B5
:10164000FEF7FDFDFFF760F91B4850F8901F21F0F1
:10165000180101604FF40070FFF71AF908B172B673
:10166000FEE714200090012000240290CDE9070439
:10167000A02009900B946846FFF754FB08B172B69E
:10168000FEE70F20CDE91E042094219401211EA81D
:101690002294FFF741FA08B172B6FEE744F2020065
:1016A0001190139411A8FFF73FF908B172B6FEE745
:1016B000FFF732F924B010BD001002400D48016858
:1016C00041F4700101600C48016841F001010160C2
:1016D000002181600268094B1A4002608214C260D6
:1016E000026822F48022026081610249C0038039CD
:1016F0000860704788ED00E000100240FFFFF6EA46
:1017000090F82410C90706D001684A68836A22F459
:1017100000321A434A6090F82410890706D5016800
:101720004A68C36A22F480321A434A6090F824104F
:10173000490706D501684A68036B22F480221A43E0
:101740004A6090F82410090706D501684A68436B7F
:1017500022F400421A434A6090F82410C90606D5C4
:1017600001688A68836B22F480521A438A6090F879
:101770002410890606D501688A68C36B22F40052DA
:101780001A438A6090F82410490611D501684A6806
:10179000036C22F480121A434A60016CB1F5801F79
:1017A00006D101684A68436C22F4C0021A434A60B9
:1017B00090F82410090606D501684A68806C22F466
:1017C000002202434A607047F8B500260446C66707
:1017D000FEF7D6FF0546206800686FF07E470007D9
:1017E00008D52B4600224FF400112046009700F048
:1017F00057F960B92068006840070AD52B460022D7
:101800004FF480012046009700F04AF908B1032008
:10181000F8BD20206067A06784F870600020F8BDE4
:101820002DE9F0410446016880682269E3691043AC
:10183000626900251A431043724F0A68724B1A40BE
:1018400002430A6020684168E26821F44051114374
:1018500041602168A069B94201D0226A10438A68B8
:1018600022F4306202438A606849236868488B42E8
:101870000DD1D0F8880010F0030006D0012847D021
:10188000022843D0032830D144E001212EE06149F1
:101890008B420BD1D0F8880010F00C0034D0042813
:1018A00036D0082832D00C281FD133E05A498B4259
:1018B0000BD1D0F8880010F0300025D0102827D0A8
:1018C000202823D0302810D124E0BB420DD1D0F8FD
:1018D000880010F4406017D0B0F5806F18D0B0F5D4
:1018E000006F13D0B0F5406F14D010214B4A002682
:1018F0004FF40040BB422FD171B102290FD004290F
:101900000FD0082975D10FE00021EFE70221EDE7A4
:101910000421EBE70821E9E7FFF78EF903E0104621
:1019200002E0FFF7ADF9E0B3626802EB42018142E9
:101930005FD8B0EB023F5CD8010E000273084FEA9B
:101940003207C01959410023FEF73EFC344AA0F586
:10195000407191424FD94CE0E3694FF6EF778342F3
:1019600029D1092945D2DFE801F005080B440D44CF
:1019700044441000FFF760F906E0FFF76FF903E059
:10198000104602E0FFF77CF958B14100606801EBB6
:101990005001B1FBF0F080B2A0F11001B94228D89B
:1019A00000E02AE04FF6F0710140C0F3420001432D
:1019B0002068C16021E009291BD2DFE801F0050899
:1019C0000B1A0D1A1A1A1000FFF736F906E0FFF786
:1019D00045F903E0104602E0FFF752F968B161688B
:1019E00000EB5100B0FBF1F080B2A0F11001B94260
:1019F00001D9012501E02168C8602666284666668F
:101A0000BDE8F08100800040F369FFEF003801403D
:101A10000010024000440040004800400024F40050
:101A2000FFFC0F00416F212910D1B0F8521071B1A5
:101A3000C16C02680988C1F308011185C16C891C59
:101A4000C164B0F85210491EA0F8521070470168E6
:101A50000A6822F080020A600068016841F04001D3
:101A600001607047416F21290ED1B0F8521061B169
:101A7000C16C026809781185C16C491CC164B0F859
:101A80005210491EA0F85210704701680A6822F0EF
:101A900080020A600068016841F0400101607047FF
:101AA0002DE9F0479A4617460E4604464FF00009C6
:101AB0004FF02008089D39E0681C37D0FEF760FE23
:101AC000A0EB0A00A84222D80DB32068016849079C
:101AD0002CD5C069C043000528D421684FF40060AC
:101AE00008622068016821F4D07101602068816873
:101AF00021F001018160C4F87480C4F87880C4F8D2
:101B00007C8000BF84F870900320BDE8F0872068D7
:101B1000016821F4D07101602068816821F0010121
:101B20008160C4F87480C4F87880EBE72068C069ED
:101B300036EA000004D00020B842BDD00020E4E71F
:101B40000120F9E7FEE70907090E002804DB00F190
:101B5000E02080F80014704700F00F0000F1E02052
:101B600080F8141D704702E008C8121F08C1002A3F
:101B7000FAD170477047002001E001C1121F002A0E
:101B8000FBD170471FB5FEF709FEFFF74DFDFFF7CC
:101B900091FCFFF7D5FCFFF761FC0D4C206820F0AD
:101BA00001002060206840F04000206009A30FCBB6
:101BB0008DE80F00102269460A48FFF70FFC2068E5
:101BC00080F008002060FA20FEF7EEFCF2E700004B
:101BD0001404004848656C6C6F20576F726C642E5B
:101BE000200D0A0078000020000000000000000026
:101BF0000102030406070809A0860100400D030046
:101C0000801A060000350C0040420F0080841E0040
:101C100000093D0000127A000024F40000366E0135
:101C20000048E801006CDC0200000000010203042F
:101C3000501C00080000002014000000661B000873
:101C4000641C000814000020E4040000761B000857
:101C50000000000001000000100000000000000073
:041C600000093D003A
:040000050800018D61
:00000001FF
