:020000040800F2
:1000000030040020A501000883100008111000082A
:1000100081100008E10200084913000800000000F8
:10002000000000000000000000000000791100083E
:10003000E302000800000000F91000087D1100082C
:10004000BF010008BF010008BF010008BF01000890
:10005000BF010008BF010008BF010008BF01000880
:10006000BF010008BF010008BF010008BF01000870
:10007000BF010008BF010008BF010008BF01000860
:10008000BF010008BF010008BF0100080000000018
:10009000000000000000000000000000BF01000898
:1000A000BF010008BF010008BF010008BF01000830
:1000B000BF0100080000000000000000BF010008B0
:1000C000BF010008BF010008BF010008BF01000810
:1000D000BF010008B9120008BF010008BF010008F5
:1000E000BF010008BF010008000000000000000080
:1000F0000000000000000000000000000000000000
:1001000000000000000000000000000000000000EF
:100110000000000000000000BF0100080000000017
:10012000BF010008BF010008BF010008BF010008AF
:10013000BF010008000000000000000000000000F7
:10014000BF010008BF010008BF010008BF0100088F
:10015000BF010008BF010008BF010008BF0100087F
:10016000BF010008BF0100080000000000000000FF
:1001700000000000BF0100080000000000000000B7
:10018000BF010008BF010008BF010008DFF810D060
:1001900000F02CF800480047C5130008AFF30080BA
:1001A000300400200648804706480047FEE7FEE787
:1001B000FEE7FEE7FEE7FEE7FEE7FEE7FEE7FEE717
:1001C000751200088D010008D2B201E000F8012B81
:1001D000491EFBD270470022F6E710B513460A46C7
:1001E00004461946FFF7F0FF204610BD064C074DA8
:1001F00006E0E06840F0010394E8070098471034F7
:10020000AC42F6D3FFF7C6FF4015000860150008A2
:1002100010B54FF09040016841F00C010160C168D9
:1002200021F00C01C1602C48C16C41F40051C16443
:100230002A4CE06840F40050E060E06840F6384145
:100240008843E060D4F8B00020F48050C4F8B000D7
:10025000A068800003D5A06820F00050A060A068CE
:1002600040F08050A060012000F03CF8A068C0077A
:1002700003D0A06840F00200A060A068C007FCD1D5
:10028000A06820F08040A060E06820F00100E060FD
:10029000A06840F00040A060A0680028FCDB206857
:1002A000C00703D0206840F001002060A06840F043
:1002B0000100A0602068C007FCD0206B40F2CF7125
:1002C00088432063206B40F440702063A06840F0B6
:1002D0000400A06010BD00000010024000000450A7
:1002E000FEE7704770B5044600F0E8F80546601C6C
:1002F00002D004480078044400F0E0F8401BA0421B
:10030000FAD370BD1C0000202DE9FC4FDFF884A15A
:10031000002301250AF1040B03244FF00F0C0BF10D
:10032000040EB0E005FA03F73A406ED04E68012E95
:1003300005D0022E03D0112E01D0122E17D1D0F8E5
:1003400008905E0004FA06F829EA08090096D1F838
:100350000C8008FA06F848EA0908C0F808804668E0
:10036000BE430F79C7F300179F4037434760C66805
:100370004FEA430804FA08F7BE4301978F6807FA6B
:1003800008F73743C7604E68022E01D0122E10D1F5
:10039000DE0800EB86060096366A5F074FEAD769EB
:1003A0000CFA09F7BE430F6907FA09F73743009EB5
:1003B00037620668019FBE430F7907F0030707FA0B
:1003C00008F7374307604E68F6005BD5324E376E4C
:1003D00047F001073766366E23F0030706F0010683
:1003E00000962E4E3E44B146B6689F074FEA1778F6
:1003F0000CFA08F7BE43B0F1904F04D0284FB84232
:1004000004D101270DE000270BE03BE0254FB84267
:1004100001D1022705E0244FB84201D1032700E0B3
:10042000072707FA08F73743C9F80870DAF80060B9
:100430005746D1F8048096435FEAC83800D5164382
:100440003E60DBF800605F46D1F8048096435FEAC7
:10045000883800D516433E60DEF800607746D1F854
:10046000048096435FEAC82800D516433E60094FD2
:100470000C373E68D1F8048096435FEA882800D59F
:1004800016433E605B1C0E683246DE407FF44AAF86
:1004900000F00CB8000401400010024000000140D0
:1004A0000004004800080048000C00481CBCBDE8DF
:1004B000E08F0AB1816170478162704701488068AE
:1004C000704700001C000020024881680278114437
:1004D000816070471C00002010B50024032000F04C
:1004E00063F8002000F008F808B1012401E000F0F2
:1004F00025F8204610BD000070B50E4E05460024BC
:10050000307898B14FF47A71B1FBF0F00A4909687C
:10051000B1FBF0F000F068FD40B9102D06D20022CA
:100520002946501E00F020F8756000E001242046A6
:1005300070BD00001C00002028000020094808B5FC
:10054000016E41F001010166016E01F001010091AF
:10055000816D41F080518165806D00F08050009088
:1005600008BD000000100240F0B40E4B1B680C46A2
:10057000C3F30223C3F10705042D00D90425191D77
:10058000072901D2002300E0DB1E012606FA05F14F
:10059000491E214099409E40761E16403143F0BCD2
:1005A00000F0D3BE0CED00E0064900F00702086839
:1005B0004FF6FF03184040EA0220034A1043086048
:1005C000704700000CED00E00000FA051649B0F598
:1005D000007F0868C0F3412009D0022805D00868D0
:1005E00020F4C06040F4806008600020704701285B
:1005F000FBD0086820F4C06040F4007008600B482D
:100600003222006850430A4AB0FBF2F0401C00E07E
:10061000401E4A69520501D50028F9D148694005B4
:10062000E3D5032070470000007000402800002040
:1006300040420F000248006800F4C06070470000AC
:10064000007000400248016841F480710160704709
:10065000007000400248016841F0040101607047E9
:10066000001002402DE9F843044600680026774D4B
:1006700080035ED5A86D0027C00008D4A86D40F0A7
:100680008050A865A86D012700F080500090DFF829
:10069000C091D9F8001041F48071C9F80010FFF73B
:1006A0000DFF804606E000BFFFF708FFA0EB080043
:1006B00002282BD8D9F80000C005F5D5D5F8900050
:1006C00010F4407014D0216B814211D0D5F8900005
:1006D000D5F8901020F4407041F48031C5F89010A6
:1006E000D5F8901021F48031C5F89010C5F890002D
:1006F000C00711D0FFF7E2FE804641F2883907E0DB
:10070000FFF7DCFEA0EB0801494501D903260BE009
:10071000D5F890008007F3D5D5F89000216B20F430
:1007200040700843C5F890001FB1A86D20F08050BC
:10073000A8652078C00707D0D5F88800616820F048
:1007400003000843C5F888002078800707D5D5F84E
:100750008800A16820F00C000843C5F888002078C4
:10076000400707D5D5F88800E16820F0300008433D
:10077000C5F888002078800607D5D5F8880021695B
:1007800020F440600843C5F888002088800507D51C
:10079000D5F88800216A20F440200843C5F8880075
:1007A0002088400507D5D5F88800616A20F44010FC
:1007B0000843C5F888002078400607D5D5F888009A
:1007C000616920F440500843C5F88800207800068D
:1007D00007D5D5F88800A16920F440400843C5F842
:1007E00088002088C00507D5D5F88800E16920F485
:1007F00040300843C5F8880020884FF0006180042D
:100800000ED5D5F88800A26A20F040601043C5F8E4
:100810008800A06A884203D1E86840F48010E8604C
:10082000206840030ED5D5F88800E26A20F04060C9
:100830001043C5F88800E06A884203D1E86840F4B4
:100840008010E8603046BDE8F883000000100240E8
:10085000007000402DE9F0470F46050058D0404E8B
:10086000306800F00700B84209D2306820F0070075
:1008700038433060306800F00700B84248D128782B
:10088000384CC0072CD06868032811D0022812D039
:10089000216898B1490500293ADAA16821F00301DD
:1008A0000143A160FFF70AFE804641F2883910E05B
:1008B00021688901EFE721688903ECE78907EAE706
:1008C000FFF7FCFDA0EB0801494502D90320BDE874
:1008D000F087A068696800F00C00B0EB810FEFD1E1
:1008E0002878800705D5A068A96820F0F0000843A3
:1008F000A060306800F00700B8420BD9306820F0E3
:10090000070038433060306800F00700B84201D07B
:100910000120DCE72878400705D5A068E96820F4C5
:10092000E0600843A0602878000706D5A068296920
:1009300020F4605040EAC100A06000F021F8A168F6
:10094000094AC1F30311515C01F01F01C840074976
:10095000086007480068BDE8F047FFF7CDBD00001C
:10096000002002400010024000150008280000206E
:100970002000002001480068704700002800002087
:1009800070B52549002318468A68CC6812F00C021D
:1009900004F00306214C4FEA640509D00C2A05D067
:1009A000042A32D0082A00D1284670BD012E10D169
:1009B0000B681B0704D4D1F89430C3F3032302E07F
:1009C0000B68C3F30313164E56F82330DAB10C2A22
:1009D000EBD1C86800F00300022818D0032818D013
:1009E0001846CA68CB68C2F30212C3F30623434316
:1009F000521CB3FBF2F2C868C0F34160401C4000D7
:100A0000B2FBF0F070BD184670BD204670BD2046A8
:100A1000E7E72846E5E70000001002400024F40064
:100A2000101500082DE9F84304006FD0FE4DA868AA
:100A300000F00C06E86800F003072078C00664D5D3
:100A400076B10C2E01D1012F0AD0E0690028286868
:100A50007AD040F001002860FFF730FD80465DE06D
:100A60002868800702D5E0690028DED0616A28681E
:100A7000000703D5286800F0F00004E0D5F89400E2
:100A8000F02202EA1010814216D9084600F036FB27
:100A900000283BD1286840F0080028602868616A77
:100AA00020F0F000084328606868216A20F47F4045
:100AB00040EA0120686016E0286840F008002860DD
:100AC0002868616A20F0F000084328606868216A9D
:100AD00020F47F4040EA0120686026B9606A00F097
:100AE0000DFB0028D5D1FFF74BFFA968CF4AC1F312
:100AF0000311515C01F01F01C840CD490860CD4889
:100B00000068FFF7F9FC00287ED12EE0C4E000BFAA
:100B1000FFF7D4FCA0EB0800022876D828688007ED
:100B2000F6D5286840F0080028602868616A20F03F
:100B3000F000084328606868216A20F47F4040EA9A
:100B40000120686011E0FFE720F001002860FFF756
:100B5000B5FC804606E000BFFFF7B0FCA0EB080044
:100B60000228DAD828688007F6D42078C00740D059
:100B7000082E18D00C2E01D1032F14D06068B0F5C8
:100B8000803F17D0B0F5A02F286817D020F4803010
:100B90002860286820F4802028606068E0B1FFF7B2
:100BA0008DFC804614E02868800322D56068002808
:100BB00072D01EE0286840F48030EDE740F48020D9
:100BC0002860F7E7FFF77AFCA0EB08006428A4D8B8
:100BD00028688003F6D50CE0FFF770FC804605E03E
:100BE000FFF76CFCA0EB0800642896D82868800307
:100BF000F6D4207880073BD5042E11D00C2E01D1DD
:100C0000022F0DD0E06801E0E2E117E1002828683A
:100C10001ED040F480702860FFF750FC07460CE0BF
:100C2000286840050CD5E0680028C1D008E000BF66
:100C3000FFF744FCC01B022893D828684005F7D56D
:100C40006868217C20F0FE4040EA016068600FE0A7
:100C500020F480702860FFF731FC074605E000BFF4
:100C6000FFF72CFCC01B0228B1D828684005F7D438
:100C70002078000753D560690028D5F894003DD04E
:100C8000A16900F01002914223D081074FEAC070A1
:100C900003D500288CD001E071E190B1D5F8940023
:100CA00020F00100C5F89400FFF708FC074604E0B7
:100CB000FFF704FCC01B112889D8D5F894008007E1
:100CC000F6D4D5F89400A16920F010000843C5F8C7
:100CD0009400D5F8940040F00100C5F89400FFF7A7
:100CE000EDFB074605E000BFFFF7E8FBC01B11283E
:100CF000A2D8D5F894008007F6D510E020F00100C6
:100D0000C5F89400FFF7DAFB074604E0FFF7D6FBCF
:100D1000C01B112890D8D5F894008007F6D420780D
:100D2000400778D5A86D0027C00008D4A86D40F012
:100D30008050A865A86D012700F0805000903E48C3
:100D40000168C90512D40168814641F480710160CF
:100D5000FFF7B4FB804605E0FFF7B0FBA0EB08000F
:100D600002286BD8D9F80000C005F5D5A068C107E6
:100D700020D0D5F8901000F0800021F080010143D0
:100D8000C5F89010207A400705D5D5F8900040F0BE
:100D90000400C5F89000D5F8900040F0010000BFB5
:100DA000C5F89000A06841F28839D0B1FFF786FB02
:100DB000804611E0D5F8900020F00100C5F89000C1
:100DC000D5F8900020F00400EAE700BFFFF776FBBB
:100DD000A0EB0801494531D8D5F890008007F5D53A
:100DE00014E0FFF76BFB804606E000BFFFF766FBF1
:100DF000A0EB0801494521D8D5F890008007F5D42B
:100E0000D5F8900020F08000C5F890001FB1A86DC3
:100E100020F08050A8652078800634D5A06A00288C
:100E2000D5F898001ED00AE0001002400015000816
:100E30002800002020000020007000408CE040F0DE
:100E40000100C5F89800FFF739FB074605E000BF31
:100E5000FFF734FBC01B02287ED8D5F89800800726
:100E6000F6D510E020F00100C5F89800FFF726FB4A
:100E7000074604E0FFF722FBC01B02286CD8D5F818
:100E800098008007F6D4E06AE8B3022811D00C2E4F
:100E900075D0286820F080702860E86820F0030092
:100EA000E860E86820F08870E860FFF707FB044618
:100EB00090E0E868226B00F0030191421FD1616B62
:100EC00000F0700209011039914218D1A26B00F4B0
:100ED000FE41B1EB022F12D1A18F00F4C0024908EC
:100EE0004905A1F50011914209D194F8401000F094
:100EF000C06049084906A1F10071814249D00C2E19
:100F00006DD0286800E05BE020F080702860FFF77B
:100F1000D5FA064605E000BFFFF7D0FA801B02288D
:100F200055D828688001F7D4D4E90C016FF00F027E
:100F300002EB01110843A18F5204490802EB415111
:100F4000A26B41EA0221084394F840104FF07E4220
:100F5000490802EB416100E039E00843E968214AB1
:100F600011400843E860286840F080702860E86815
:100F700040F08070E860FFF7A1FA044605E02EE03B
:100F8000FFF79CFA001B022821D828688001F7D5BA
:100F900023E02868800120D4286840F08070286011
:100FA000E86840F08070E860FFF788FA044604E0E3
:100FB000FFF784FA001B022809D828688001F7D5BA
:100FC0000BE000BFFFF77AFA001B022802D90320CA
:100FD000BDE8F88328688001F4D40020F8E70120F8
:100FE000F6E700008C809FF910B5401EB0F1807FBD
:100FF00001D3012010BD4FF0E02460610F21601784
:1010000000F0A3F90020A06107202061002010BD9E
:10101000FEE7000010B586B014216846FFF7DBF844
:101020001548C16C41F00401C164C16C01F00401B8
:101030000591C16C41F00101C164C16C01F0010175
:101040000591C16C41F00201C164C06C0B4C00F011
:10105000020005900022C9212046FFF72AFAC92084
:10106000009001200021CDE901010391694620464D
:10107000FFF74AF906B010BD001002400004004816
:10108000FEE7FEE71B4808B5816D41F0010181656F
:10109000806D40F6B73100F0010000904FF08040C5
:1010A000816240F24D11C162816921F0700181615C
:1010B000816941F060018161016A41F001010162D1
:1010C000002141634FF090410A6822F440620A60B7
:1010D0000A6842F400620A600A6A22F470020A6234
:1010E0000A6A42F480120A62016841F0010101605B
:1010F00008BD00000010024070470000F8B51C4D0C
:1011000006460024A86DC00002D5FFF793FA0DE053
:10111000A86D40F08050A865A86D00F08050009048
:10112000FFF788FAA96D21F08051A965B0F5007F1D
:1011300004D0802E07D94FF003040AE0802E08D98E
:10114000A02E01D804E001D1022402E0702E00D1CB
:1011500001240848016821F007012143016000686B
:1011600000F00700A04201D00120F8BD0020F8BD2A
:10117000001002400020024070470000144B30B4C1
:101180001868401C18600A281FDD1249124C0868B4
:101190002578124AA84209DD146844F0400414601E
:1011A000146884F080041460401E0BE02478A04290
:1011B00009DA146824F040041460146884F0800490
:1011C0001460401C08600020186030BCFFF77CB938
:1011D0001800002014000020000000201404004823
:1011E00010B5A4B044216846FEF7F5FF14211EA8EF
:1011F000FEF7F1FF342111A8FEF7EDFFFFF722FA09
:101200001B4850F8901F21F0180101604FF4007046
:10121000FFF7DCF908B172B6FEE714200090012058
:1012200000240290CDE90704A02009900B946846A1
:10123000FFF7F8FB08B172B6FEE70F20CDE91E04F8
:101240002094219401211EA82294FFF703FB08B1EA
:1012500072B6FEE744F202001190139411A8FFF752
:1012600001FA08B172B6FEE7FFF7F4F924B010BD39
:10127000001002400D48016841F4700101600C4803
:10128000016841F001010160002181600268094BA1
:101290001A4002608214C260026822F48022026056
:1012A00081610249C00380390860704788ED00E021
:1012B00000100240FFFFF6EA30B521480088C3B2B3
:1012C000184600F007F91F4C6068B8B16068012843
:1012D00002D06068022810D10025A0680A2B19D01E
:1012E000032814DAA3F13000092810D81548A168A2
:1012F000401C4354A068401CA06030BD4D2B04D05E
:10130000532BFAD10220606030BD0120FBE76560FD
:10131000A56030BD0328FAD10A48401C00F0CCF883
:101320006168012903D06168022902D004E02070BD
:1013300002E04FF080414863A560656030BD000069
:101340002438014000000020FEE70907090E0028AC
:1013500004DB00F1E02080F80014704700F00F007B
:1013600000F1E02080F8141D704702E008C8121F49
:1013700008C1002AFAD170477047002001E001C17E
:10138000121F002AFBD1704730B500210C4C3022CF
:101390006254491C0429FBDB00210A230BE000BF37
:1013A000B0FBF3F203FB1202C1F1030530326255C8
:1013B000B0FBF3F0491C0028F2D1014830BD000019
:1013C0000C00002008B5FFF787F8FFF709FFFFF7CB
:1013D00021FE4FF09040016821F4A01101600168E6
:1013E00041F420110160416A21F408614162416ABF
:1013F00041F4EE6141622448016E41F4804101668E
:10140000006E00F480400090FFF7B4FA4FF4E13131
:10141000B0FBF1F01D4908601C480C38016841F030
:101420000C010160016841F020010160016841F098
:101430000101016016492020C1F800011449102063
:10144000213181F80004134C206820F00100206055
:10145000206840F040002060FEF7DAFEFFF712FE41
:101460000D4D4FF47A76206880F0080020600BA0C4
:1014700000F03AF82878FFF787FF00F035F830469B
:10148000FEF730FFEFE70000001002400C3801408B
:1014900004E000E01404004800000020437572726C
:1014A000656E74204D6F746F7220506F736974692C
:1014B0006F6E3A2000000000034600200246995C4F
:1014C00000EB8000303901EB4000521CC0B2032A0F
:1014D000F5DB704703490A681206FCD501490C3157
:1014E000088070471C38014010B50446002302E014
:1014F000FFF7F0FF5B1CE05C0028F9D110BD000095
:1015000000000000000000000102030406070809B3
:10151000A0860100400D0300801A060000350C0073
:1015200040420F0080841E0000093D0000127A0036
:101530000024F40000366E010048E801006CDC0273
:1015400060150008000000202C0000006A1300084D
:101550008C1500082C000020040400007A130008F9
:1015600001000000000000000000000030303030BA
:101570000A0D000001000000000000000100000052
:0C158000100000000000000000093D0009
:040000050800018D61
:00000001FF
